S0100000536E6573436172742E73726563F1
S1130000C6C20000E2C20000E0C20000DEC200007E
S1130010DCC20000DAC20000D8C200000C94E4087C
S1130020D4C20000D2C20000D0C20000CEC2000080
S1130030CCC20000CAC20000C8C20000C6C2000090
S1130040C4C20000C2C20000C0C20000BEC20000A0
S1130050BCC20000BAC20000B8C20000B6C20000B0
S1130060B4C20000B2C20000B0C20000AEC20000C0
S1130070ACC20000AAC20000A8C20000A6C20000D0
S1130080A4C20000A2C20000A0C200000000000040
S1130090963007772C610EEEBA51099919C46D0791
S11300A08FF46A7035A563E9A395649E3288DB0EEC
S11300B0A4B8DC791EE9D5E088D9D2972B4CB609CF
S11300C0BD7CB17E072DB8E7911DBF906410B71DAC
S11300D0F220B06A4871B9F3DE41BE847DD4DA1AE5
S11300E0EBE4DD6D51B5D4F4C785D38356986C1316
S11300F0C0A86B647AF962FDECC9658A4F5C01148F
S1130100D96C0663633D0FFAF50D088DC8206E3B6C
S11301105E10694CE44160D5727167A2D1E4033C7E
S113012047D4044BFD850DD26BB50AA5FAA8B535A5
S11301306C98B242D6C9BBDB40F9BCACE36CD83294
S1130140755CDF45CF0DD6DC593DD1ABAC30D9263B
S11301503A00DE518051D7C81661D0BFB5F4B4213E
S113016023C4B3569995BACF0FA5BDB89EB802283B
S11301700888055FB2D90CC624E90BB1877C6F2FC0
S1130180114C6858AB1D61C13D2D66B69041DC76BB
S11301900671DB01BC20D2982A10D5EF8985B17194
S11301A01FB5B606A5E4BF9F33D4B8E8A2C9077843
S11301B034F9000F8EA8099618980EE1BB0D6A7FDA
S11301C02D3D6D08976C6491015C63E6F4516B6B93
S11301D062616C1CD83065854E0062F2ED95066C48
S11301E07BA5011BC1F4088257C40FF5C6D9B065BD
S11301F050E9B712EAB8BE8B7C88B9FCDF1DDD621A
S1130200492DDA15F37CD38C654CD4FB5861B24D7F
S1130210CE51B53A7400BCA3E230BBD441A5DF4A49
S1130220D795D83D6DC4D1A4FBF4D6D36AE969430C
S1130230FCD96E34468867ADD0B860DA732D0444B7
S1130240E51D03335F4C0AAAC97C0DDD3C710550E2
S1130250AA41022710100BBE86200CC925B5685789
S1130260B3856F2009D466B99FE461CE0EF9DE5ED2
S113027098C9D9292298D0B0B4A8D7C7173DB35983
S1130280810DB42E3B5CBDB7AD6CBAC02083B8ED14
S1130290B6B3BF9A0CE2B6039AD2B1743947D5EA21
S11302A0AF77D29D1526DB048316DC73120B63E350
S11302B0843B64943E6A6D0DA85A6A7A0BCF0EE4AF
S11302C09DFF099327AE000AB19E077D44930FF06A
S11302D0D2A3088768F2011EFEC206695D5762F761
S11302E0CB67658071366C19E7066B6E761BD4FE9E
S11302F0E02BD3895A7ADA10CC4ADD676FDFB9F97B
S1130300F9EFBE8E43BEB717D58EB060E8A3D6D63C
S11303107E93D1A1C4C2D83852F2DF4FF167BBD16A
S11303206757BCA6DD06B53F4B36B248DA2B0DD86D
S11303304C1B0AAFF64A0336607A0441C3EF60DF10
S113034055DF67A8EF8E6E3179BE69468CB361CBF9
S11303501A8366BCA0D26F2536E2685295770CCC1E
S113036003470BBBB91602222F260555BE3BBAC55F
S1130370280BBDB2925AB42B046AB35CA7FFD7C250
S113038031CFD0B58B9ED92C1DAEDE5BB0C2649B41
S113039026F263EC9CA36A750A936D02A906099C74
S11303A03F360EEB8567077213570005824ABF95E7
S11303B0147AB8E2AE2BB17B381BB60C9B8ED2926A
S11303C00DBED5E5B7EFDC7C21DFDB0BD4D2D386C1
S11303D042E2D4F1F8B3DD686E83DA1FCD16BE8134
S11303E05B26B9F6E177B06F7747B718E65A088805
S11303F0706A0FFFCA3B06665C0B0111FF9E658F96
S113040069AE62F8D3FF6B6145CF6C1678E20AA03F
S1130410EED20DD75483044EC2B30339612667A7C5
S1130420F71660D04D476949DB776E3E4A6AD1AE14
S1130430DC5AD6D9660BDF40F03BD83753AEBCA9A3
S1130440C59EBBDE7FCFB247E9FFB5301CF2BDBD10
S11304508AC2BACA3093B353A6A3B4240536D0BA19
S11304609306D7CD2957DE54BF67D9232E7A66B3B6
S1130470B84A61C4021B685D942B6F2A37BE0BB463
S1130480A18E0CC31BDF055A8DEF022D85057B055C
S1130490700565055D0555054C05400536052D05BA
S11304A02405190510050505F904EE04E304D70431
S11304B0CA04C004B6045A454C44412E534D43006B
S11304C0534D414E412E534D430053434153544CDD
S11304D045342E534D43004E47484F5354532E53E7
S11304E04D43004646555259322E534D4300462D36
S11304F05A45524F2E534D4300434F4E54524133AD
S11305002E534D43004D4554414C572E534D4300FB
S1130510444B43332E534D430053554E5345542EB1
S1130520534D430044454D4F2E534D430053424FCA
S11305304D2E534D4300424C41434B2E534D4300EB
S1130540414C414444494E2E534D4300554D4B3389
S11305502E534D43004D4B332E534D43004D4B32E0
S11305602E534D4300434153544C452E534D4300A9
S1130570584D454E5F482E534D4300544745415214
S11305802E534D4300534D572E534D430000112419
S11305901FBECFEFD0E1DEBFCDBF13E0A0E0B1E0DE
S11305A0E4EFFAE100E00BBF02C007900D92AE3712
S11305B0B107D9F725E0AEE7B3E001C01D92AA3C2C
S11305C0B207E1F74DD50C94780D1ACD8E9A8F9819
S11305D09698089547E050E080E020B3221F222738
S11305E0221F30E0042E02C0220F331F0A94E2F7C8
S11305F0822B969A9DE09A95F1F7000096984150C7
S1130600510958F708950F931F93CF93DF938C01EB
S1130610C1E0D0E001C0219607FF03C081E30CD7FD
S113062002C080E309D7C430D10529F480E204D79D
S1130630000F111FF0CF000F111FC830D1055CF35C
S1130640DF91CF911F910F9108952F923F924F9276
S11306505F926F927F928F929F92AF92BF92CF924E
S1130660DF92EF92FF920F931F93CF93DF93CDB757
S1130670DEB761970FB6F894DEBF0FBECDBF6A0137
S11306807B0110928603109285034FEF5FEFBA014E
S113069040930001509301016093020170930301A0
S11306A04093040150930501609306017093070180
S11306B00DE813E022E833E04EE753E065E873E029
S11306C070D4813009F0FDC016012701012E19E014
S11306D056944794379427941A95D1F7102D2B8666
S11306E03C864D865E864B845C845A86498684E3C8
S11306F091E021D7D701C601072E7FE0B695A795D3
S1130700979587957A95D1F7702D682E712C1F9245
S11307108F931F921F9283E591E09F938F93F8D656
S11307200F900F900F900F900F900F90452809F4A1
S1130730CCC019821A821B821C821D821E821F82D7
S1130740188600E010E0512C0F2EFDE8CF2EF5E0C6
S1130750DF2EF02D29813A814B815C816DE873E0B5
S11307608091850390918603B2D30F2EFDE8EF2E7E
S1130770F3E0FF2EF02D8D809E80AF80B884598ADF
S1130780F88AEF862FEF821A920AA20AB20AEF843D
S1130790F888C801A0E0B0E02989F7014191F88BFD
S11307A0EF87BC01CD0143D140910001509101017B
S11307B06091020170910301D7018C911A012B0100
S11307C02826D201C1019927AA27BB27FC01EE0FD5
S11307D0FF1FEE0FFF1FE457FF4F85919591A591E1
S11307E0B491452F562F672F7727482759276A2713
S11307F07B274093000150930101609302017093A1
S113080003010F3F2FE7120729F5D501C401072E75
S11308107FE0B695A795979587957A95D1F7702D32
S1130820898B082F10E07F926F921F928F938CE632
S113083091E09F938F936CD6C801E5DE87E891E041
S11308407AD60F900F900F900F900F900F9000E0BA
S113085010E002C00F5F1F4F2F8438882C143D0412
S113086009F090CF59888D819E81AF81B8859E5FB4
S1130870AF4FBF4F8D839E83AF83B88789819A81A1
S1130880AB81BC810196A11DB11D89839A83AB8381
S1130890BC8329843A848215930508F45BCF8B8545
S11308A09C850197A0E0B0E00196A11DB11D072E23
S11308B079E0880F991FAA1FBB1F7A95D1F7702D75
S11308C007C080E090E0DC0103C080E090E0DC0140
S11308D0BF93AF939F938F938AE891E09F938F93F5
S11308E017D60F900F900F900F900F900F90619666
S11308F00FB6F894DEBF0FBECDBFDF91CF911F912D
S11309000F91FF90EF90DF90CF90BF90AF909F90AA
S11309108F907F906F905F904F903F902F900895AD
S113092010926C0010926D00C79A109261001092A0
S1130930620014BA15BA1ABA1BBAE4E6F0E0808170
S113094081608083A5E6B0E08C9181608C93808186
S11309508D7F808388EC80938C0385B78F7785BFE8
S1130960109289030895CF93C82F662359F06130FC
S113097089F488E991E0DFD5E5E6F0E080818061E3
S1130980808308C08EE991E0D6D5E5E6F0E0808169
S11309908F7E8083CC2319F0C13051F011C084EADA
S11309A091E0C9D5E5E6F0E08081877F808308C0C7
S11309B08FEA91E0C0D5E5E6F0E08081886080832D
S11309C0CF91089561E081E0CEDF80EC85BF82E4C1
S11309D080936D0081E080936C00A79AAF98C798CC
S11309E09FE3909361001092620098EC90938C03C3
S11309F0C59880938903089590918C03981761F0AA
S1130A0080FF02C0AF9A01C0AF98982F96959F734C
S1130A109093620080938C030895FB01F058408307
S1130A2080918C03803410F00F9BFECF0895CF92F9
S1130A30DF92EF92FF92CF93DF936B017C01D42F6F
S1130A40C22F203438F4822FD7DF4D2FC701B601CF
S1130A50E4DF1AC080E4D0DF4AEA65E575E580E0AA
S1130A6090E0DBDF45E56AEA7AE280E090E0D5DFFA
S1130A7040EA65E575E580E090E0CFDF8C2FBCDFD0
S1130A804D2FC701B601C9DFDF91CF91FF90EF90E1
S1130A90DF90CF90089580E4AFDF4AEA65E575E51D
S1130AA080E090E0BADF45E56AEA7AE280E090E02F
S1130AB0B4DF40E865E575E580E090E0AEDF4AEA42
S1130AC065E575E580E090E0A8DF45E56AEA7AE24D
S1130AD080E090E0A2DF40E165E575E580E090E02C
S1130AE09CDF0F990BC02FEF81EE94E021508040E2
S1130AF09040E1F700C000000F9BF5CF089580E41B
S1130B007BDF4AEA65E575E580E090E086DF45E550
S1130B106AEA7AE280E090E080DF40EF65E575E51F
S1130B2080E090E07ACF0895CF93DF93EC01609159
S1130B308E0570918F0580E090E0AE013FD4288946
S1130B408E899F89289FA001299F500D11248E858D
S1130B509F8520918E0530918F05820F931F840FFE
S1130B60951FDF91CF910895CF93DF93CDB7DEB773
S1130B70D2500FB6F894DEBF0FBECDBFAE014F5FAB
S1130B805F4F60E070E0CB0119D4C150DE4F888123
S1130B90CF5FD140853539F4C050DE4F8881C050D5
S1130BA0D2408A3A09F0FFCFC853DE4F6881C85C4F
S1130BB0D14070E0762F6627C953DE4F8881C75C29
S1130BC0D140680F711D70938F0560938E0580E08E
S1130BD090E0AE014F5F5F4FF1D3C150DE4F88818B
S1130BE0CF5FD140853539F4C050DE4F8881C05085
S1130BF0D2408A3A59F010928F0510928E05AE01B8
S1130C004F5F5F4F60E070E0CB01D8D38E85809357
S1130C1094058F85988990939105809390058C8590
S1130C209D85880F991F82959295907F9827807F44
S1130C309827892F86958093920510929305CE016B
S1130C40019672DF2091920530919305820F931FD4
S1130C509093930580939205DE5F0FB6F894DEBF00
S1130C600FBECDBFDF91CF9108958F929F92AF9227
S1130C70BF92CF92DF92EF92FF920F931F93CF9385
S1130C80DF937B018A01FB01408151816281738181
S1130C90452B462B472B51F08F3FFFEF9F0709F45D
S1130CA04EC0C12CD12C20E030E00DC0A0E0B0E05B
S1130CB0F70180839183A283B38341C09E018F3F58
S1130CC0FFEF9F07E1F1880F991F5C01E894A0F8FA
S1130CD041E0B422C0918E05D0918F0540919005DA
S1130CE050919105C40FD51F892F99278695C80F58
S1130CF0D91FC217D30739F0CE01A0E0B0E0A80194
S1130D00BC01CD015BD3F801EA0DFB1D818190E0AC
S1130D10982F88272081820F911DEFEFCE1ADE0ACB
S1130D204601A12CB12CF70140815181628173816C
S1130D3084169506A606B70609F0C0CFB7CFDF9193
S1130D40CF911F910F91FF90EF90DF90CF90BF90C4
S1130D50AF909F908F9008954F925F926F927F9281
S1130D608F929F92AF92BF92CF92DF92EF92FF92B7
S1130D700F931F93CF93DF9300D000D0CDB7DEB78E
S1130D80A62E2A01390119821A821B821C8200971D
S1130D9049F4C801C9DEA0E0B0E089839A83AB833B
S1130DA0BC8321C0A801BE016F5F7F4F5EDF8981D4
S1130DB09A81AB81BC819C01AD012250310941096A
S1130DC05109A0919405B0E070D32091920530911F
S1130DD09305DC01CB01820F931FA11DB11D8983F3
S1130DE09A83AB83BC8389809A80E12CF12C6801BF
S1130DF080E2C81A8EEFD80AB12CC401A0E0B0E09A
S1130E00A801BC01CD01DAD2D8018C91882309F460
S1130E1044C0F80105C0B0968081882309F440C01D
S1130E2093859F3099F1853E89F1AE14BF0459F53D
S1130E30BF0180E04EE29B01DB019C91903261F0A6
S1130E40883021F4D8014C930F5F1F4FD9019C9136
S1130E50D8019C930F5F1F4F8F5F6F5F7F4F8B3065
S1130E6051F7D8011C928385D3018C93448D558D01
S1130E70668D778DD2014D935D936D937C9313971B
S1130E80828D938D0FC0BFEFEB1AFB0ACE16DF06DF
S1130E9011F6EFEF8E1A9E0AB0CF8FEF9FEF02C0CC
S1130EA08FEF9FEF0F900F900F900F90DF91CF91E6
S1130EB01F910F91FF90EF90DF90CF90BF90AF9074
S1130EC09F908F907F906F905F904F9008954F9276
S1130ED05F926F927F928F929F92AF92BF92CF92C6
S1130EE0DF92EF92FF920F931F93CF93DF9300D083
S1130EF000D0CDB7DEB77C018B0129013A012091E6
S1130F00940530E040E050E0C301B201ACD2298343
S1130F103A834B835C83A801BE016F5F7F4FC70197
S1130F20A4DEC0909405D12CE12CF12C89819A8106
S1130F30AB81BC819C01AD012250310941095109A9
S1130F40C701B60181D220919205309193054B01DE
S1130F505C01820E931EA11CB11CC301B201A70146
S1130F60960181D2680D791D8A1D9B1D69837A8340
S1130F708B839C83A80122D20F900F900F900F9027
S1130F80DF91CF911F910F91FF90EF90DF90CF9061
S1130F90BF90AF909F908F907F906F905F904F9095
S1130FA008955F926F927F928F929F92AF92BF92B9
S1130FB0CF92DF92EF92FF920F931F93CF93DF9321
S1130FC04C01EB015A016901780168807980512C48
S1130FD087019601A501652DC301BEDE998388832F
S1130FE0019659F0B701C40180D2892B41F0539482
S1130FF084E65812EDCF82E003C080E001C081E0B6
S1131000DF91CF911F910F91FF90EF90DF90CF90E0
S1131010BF90AF909F908F907F906F905F90089556
S1131020CF93C82F8A3011F48DE006D28C2F04D2CE
S113103080E090E0CF910895E4E6F0E0808188605C
S11310408083808180618083BF9A1F9ABD9A0895AE
S113105016981E9A80E28ABF89B7806489BF089572
S113106088E091E09093C7058093C60541E050E085
S113107060E072EC81E090E0D3D182E592E05BD253
S1131080DBDFA0DC3CDD84E692E09F938F9340D2CB
S11310901ED10F900F90882321F08AE193E04BD268
S11310A004C088EE92E047D25FDD84E792E043D249
S11310B040E050E064E070E084E892E0C6DA30DCBE
S11310C061E080E050DC8DE892E035D288E992E07E
S11310D032D2BEDF7BDA7894C5EBD5E00DEB12E0BB
S11310E00F2EFEEEEF2EF2E0FF2EF02D8091840302
S11310F0813009F05FC0E881F0E0EE0FFF1FE45794
S1131100FB4F6591749188EB95E0E8D18A811F9239
S11311108F9389811F928F9388EB95E09F938F9390
S11311201F930F93F5D1109284038DB79EB7089641
S11311300FB6F8949EBF0FBE8DBF80918903813096
S113114039F082E592E0F7D13DDC84EE92E0F3D110
S11311508A81813448F0FF92EF92DAD19CDC82E0FC
S113116093E0E9D10F900F904A8150E060E070E085
S1131170032E3FE0440F551F661F771F3A95D1F7A2
S1131180302D88EB95E061DACBDB8981882339F057
S1131190813051F461E080E0E6DBF89408C060E05F
S11311A080E0E1DBF89403C08CE093E0C4D11882C2
S11311B019821A829FEF24E38CE0915020408040F2
S11311C0E1F700C0000092CF1F920F920FB60F926A
S11311D011240BB60F922F933F934F935F936F930A
S11311E07F938F939F93AF93BF93EF93FF93F89461
S11311F0F1D9E091830391E09E0F90938303F0E093
S1131200EB54FA4F80831F928F9380E293E09F9375
S11312108F937ED1809183030F900F900F900F9046
S11312208330B0F0909184031F929F931F928F9309
S11312308AE293E09F938F936BD11092830381E0B2
S1131240809384030F900F900F900F900F900F9046
S11312507894FF91EF91BF91AF919F918F917F917E
S11312606F915F914F913F912F910F900BBE0F9013
S11312700FBE0F901F9018958FEF8FB9779BFECFFD
S11312808FB108958FB9779BFECF08950F931F9365
S1131290CF93DF938C01C49A8FEFF4DFC498E801F5
S11312A00A5F1F4F8991EEDFC017D107D9F706C037
S11312B0E3DF219739F08F3FD9F304C0DDDFC5EFB9
S11312C0D1E0F9CFDF91CF911F910F9108950F9342
S11312D01F93CF93DF9300D000D000D0CDB7DEB7FB
S11312E0BB98B99ABA9ABC9AB89AC49A88EC000086
S11312F08150E9F783E58DB91EB81FE08FEFC2DF97
S11313001150E1F786E0E6E1F1E0DE01119601908B
S11313100D928A95E1F70AEC10E006C0015011091C
S113132019F4C49A81E01CC0CE010196AFDF81306C
S1131330A9F781E489838FEF8E8302E911E006C067
S11313400150110919F4C49A82E00AC0CE01019631
S11313509DDF8111F5CF9DB19C7F9DB9709AC49A90
S113136026960FB6F894DEBF0FBECDBFDF91CF91A6
S11313701F910F910895EF92FF920F931F93CF93B4
S1131380DF937B018A0182DF811111C075DF8E3FFB
S1131390E9F70115110541F0E7010E0D1F1D6CDF82
S11313A089930C171D07D9F767DF66DFC49ADF91AD
S11313B0CF911F910F91FF90EF900895CF93DF93FA
S11313C000D000D000D0CDB7DEB79A0146E0E2E20B
S11313D0F1E0DE01119601900D924A95E1F7DC01EE
S11313E0CB01072E79E0880F991FAA1FBB1F7A959E
S11313F0D1F7702DBA83AB838827AA27BB279C8398
S113140040E052E0B901CE010196B5DF80E02696B6
S11314100FB6F894DEBF0FBECDBFDF91CF91089514
S113142088E180939A0086E080939D0083E0809316
S11314309900109298000895EBE9F0E0908195FFEF
S1131440FDCF80939C000895DB018F939F932DD053
S1131450BF91AF91A29F800D911DA39F900DB29F4C
S1131460900D11240895A1E21A2EAA1BBB1BFD01A5
S11314700DC0AA1FBB1FEE1FFF1FA217B307E4076F
S1131480F50720F0A21BB30BE40BF50B661F771FC7
S1131490881F991F1A9469F76095709580959095A7
S11314A09B01AC01BD01CF01089509D0A59F900D0A
S11314B0B49F900DA49F800D911D11240895A29FA7
S11314C0B001B39FC001A39F700D811D1124911D14
S11314D0B29F700D811D1124911D0895FB01DC0143
S11314E005900D920020E1F70895FB01DC018D9138
S11314F081341CF08B350CF4805E619161341CF0F6
S11315006B350CF4605E861B611189F3990B0895A9
S1131510CF93DF93CDB7DEB7AE014B5F5F4FFA01D8
S113152061917191AF018091C6059091C70533D047
S1131530DF91CF9108950F931F93CF93DF93E091A1
S1131540C605F091C705238121FF1BC08C01D0E0A3
S1131550C0E0F80181918F016091C6057091C705C3
S1131560DB011896ED91FC911997882331F00995C8
S1131570892B79F3DFEFCFEFECCF8AE00995892B44
S113158019F08FEF9FEF02C08D2F9C2FDF91CF9129
S11315901F910F9108952F923F924F925F926F92F5
S11315A07F928F929F92AF92BF92CF92DF92EF92EF
S11315B0FF920F931F93CF93DF93CDB7DEB72B9793
S11315C00FB6F894DEBF0FBECDBF6C017B018A015C
S11315D0FC0117821682838181FFBFC1CE0101966F
S11315E03C01F6019381F70193FD859193FF81916D
S11315F07F01882309F4ADC1853239F493FD8591C7
S113160093FF81917F01853221F4B60190E0D6D118
S1131610E8CF912C212C312CFFE1F315D8F08B323B
S113162079F038F4803279F08332A1F4232D2061EB
S11316301DC08D3261F0803369F4232D216016C002
S1131640832D8260382EE32DE4603E2E2AC0F32DD4
S1131650F8601DC037FC2DC020ED280F2A3040F063
S11316608E32B9F436FC75C1232D2064322E19C094
S113167036FE06C08AE0989E200D1124922E11C0D9
S1131680EAE02E9E200D1124222EF32DF0623F2E2F
S113169008C08C3621F4832D8068382E02C0883629
S11316A041F4F70193FD859193FF81917F018111AD
S11316B0B3CF982F9F7D9554933028F40C5F1F4F20
S11316C09FE399830DC0833631F0833771F08335FE
S11316D009F055C020C0F801808189830E5F1F4F37
S11316E088248394912C530112C02801F2E04F0EF8
S11316F0511CF801A080B18036FE03C0692D70E052
S113170002C06FEF7FEFC5014ED14C018201F32D72
S1131710FF773F2E15C0280122E0420E511CF8012C
S1131720A080B18036FE03C0692D70E002C06FEF67
S11317307FEFC5012DD14C01F32DF0683F2E8201BE
S113174033FC19C0822D90E088169906A0F4B601E6
S113175080E290E033D12A94F5CFF50137FC8591EE
S113176037FE81915F01B60190E028D121102A94BF
S113177021E0821A91088114910479F7E1C084363A
S113178011F0893639F5F80137FE07C0608171819F
S1131790828193810C5F1F4F08C060817181072E85
S11317A0000C880B990B0E5F1F4FF32DFF763F2E15
S11317B097FF09C090958095709561957F4F8F4FE5
S11317C09F4FF0683F2E2AE030E0A30133D1882EEA
S11317D0861844C0853731F4232D2F7EB22E2AE09B
S11317E030E025C0932D997FB92E8F36C1F018F4BF
S11317F0883579F0AEC0803719F0883721F0A9C058
S1131800E92FE061BE2EB4FE0DC0FB2DF460BF2EA7
S113181009C034FE0AC0292F2660B22E06C028E073
S113182030E005C020E130E002C020E132E0F80100
S1131830B7FE07C060817181828193810C5F1F4F65
S113184006C06081718180E090E00E5F1F4FA301AC
S1131850F1D0882E8618FB2DFF773F2E36FE0DC063
S1131860232D2E7FA22E891458F434FE0BC032FC93
S113187009C0832D8E7EA82E05C0B82CA32C03C0CE
S1131880B82C01C0B92CA4FE0FC0FE01E80DF11D57
S11318908081803321F49A2D997EA92E09C0A2FE5D
S11318A006C0B394B39404C08A2D867809F0B39427
S11318B0A3FC10C0A0FE06C0B21480F4280C922C25
S11318C09B180DC0B21458F4B60180E290E076D0B3
S11318D0B394F8CFB21418F42B1802C0982C212C0E
S11318E0A4FE0FC0B60180E390E068D0A2FE16C04B
S11318F0A1FC03C088E790E002C088E590E0B6014F
S11319000CC08A2D867851F0A1FE02C08BE201C082
S113191080E2A7FC8DE2B60190E050D0891430F447
S1131920B60180E390E04AD09A94F8CF8A94F30108
S1131930E80DF11D8081B60190E040D08110F6CF12
S1131940222009F44ECEB60180E290E037D02A94EA
S1131950F7CFF6018681978102C08FEF9FEF2B9618
S11319600FB6F894DEBF0FBECDBFDF91CF911F91AC
S11319700F91FF90EF90DF90CF90BF90AF909F902A
S11319808F907F906F905F904F903F902F9008952D
S1131990FC010590615070400110D8F78095909536
S11319A08E0F9F1F0895FC0161507040019001103B
S11319B0D8F7809590958E0F9F1F08950F931F93CE
S11319C0CF93DF93FB01238121FD03C08FEF9FEFB2
S11319D02CC022FF16C046815781248135814217CD
S11319E0530744F4A081B1819D012F5F3F4F3183A0
S11319F020838C93268137812F5F3F4F3783268343
S1131A0014C08B01EC01FB010084F185E02D0995E4
S1131A10892BE1F6D80116968D919C911797019622
S1131A2017969C938E931697CE01DF91CF911F91B9
S1131A300F910895FA01AA27283051F1203181F13C
S1131A40E8946F936E7F6E5F7F4F8F4F9F4FAF4FC2
S1131A50B1E03ED0B4E03CD0670F781F891F9A1FD5
S1131A60A11D680F791F8A1F911DA11D6A0F711D89
S1131A70811D911DA11D20D009F468943F912AE095
S1131A80269F11243019305D3193DEF6CF0108957D
S1131A90462F4770405D4193B3E00FD0C9F7F6CFAE
S1131AA0462F4F70405D4A3318F0495D31FD405276
S1131AB0419302D0A9F7EACFB4E0A695979587950C
S1131AC077956795BA95C9F70097610571050895EB
S1131AD09B01AC010A2E0694579547953795279597
S1131AE0BA95C9F7620F731F841F951FA01D08952F
S1071AF0F894FFCF94
S1131AF4FFFFFFFFFFFFFFFF0000000200000000E4
S1131B041008000000004000000000955800000088
S1131B1400FF5100000000FF4A00000000FF4900DC
S1131B24000000FF50726F636573736F2064652057
S1131B346772617661E7E36F20696E696369616462
S1131B446F2E0047726176616E646F2042616E6B22
S1131B543A2025642064652025640A00477261766E
S1131B64616E646F2042616E6B3A20256420646563
S1131B7420256420282000202900477261766164AE
S1131B846F7320256C750A004C4F524F4D00484921
S1131B94524F4D0042555320454E41424C4500425C
S1131BA455532044495341424C4500416E74657376
S1131BB42062616E6B20282564292000414444522C
S1131BC44553537C203030203031203032203033A0
S1131BD4203034203035203036203037203038203F
S1131BE430392030412030422030432030442030EA
S1131BF445203046002D2D2D2D2D2D2D7C2D2D2DC4
S1131C042D2D2D2D2D2D2D2D2D2D2D2D2D2D2D2DFC
S1131C142D2D2D2D2D2D2D2D2D2D2D2D2D2D2D2DEC
S1131C242D2D2D2D2D2D2D2D2D2D2D2D2D003078BB
S1131C3425303458207C2000256320002530325878
S1131C442000496E696369616E646F20584D454E86
S1131C542E2E2E005344204361726420696E6974ED
S1131C642E2E2E0047726176616E646F20424F4FB0
S1131C74542E2E00626F6F742E7366630052657364
S1131C84657420534E455300696E697420646F6E05
S1131C94652E0A486162696C6974616E746F2069A7
S1131CA46E74657272757074696F6E730046696CD4
S1131CB4652025732C206D61707065723A2025307F
S1131CC432642C206E756D42616E636F732025300F
S1131CD433640A00696E697420646F6E6500417030
S1131CE46167616E646F20666C617368202E2E2EAA
S1131CF42000636F6E636C7569646F004D6170706E
S1131D0465722065727261646F2C206661696C006F
S1131D1452656164202564200A00436F6D706C650C
S1131D2474652025642C2025640A000D0A44697214
S1131D346563746F72790D00436C757374657220F6
S1131D443D202534782044697241203D2025327891
S1131D542053697A65203D202530376C7520466907
S1111D646C654E616D65203D20002573000006
S9030000FC
